:100000000C9406040C942E040C942E040C942E04D0
:100010000C942E040C942E040C942E040C942E0498
:100020000C942E040C942E040C942E040C942E0488
:100030000C942E040C942E040C942E040C942E0478
:100040000C94280B0C942E040C94F60A0C94D00AF1
:100050000C942E040C942E040C942E040C942E0458
:100060000C94720B0C942E046F6B00696E76616CAD
:1000700069645F706172616D00524E3239303300D5
:1000800064656E696564006E6F745F6A6F696E6542
:1000900064006B6579735F6E6F745F696E6974007D
:1000A000696E76616C69645F646174615F6C656ED2
:1000B000006D61635F6572720034323934393637EE
:1000C000323435000D0A00726164696F5F657272C7
:1000D000006D61635F706175736564006F666600D3
:1000E0006F6E006D61635F74785F6F6B0072616447
:1000F000696F5F7278202000616363657074656466
:1001000000524E3234383300726164696F5F747824
:100110005F6F6B006D61635F7278006E6F5F667218
:1001200065655F636800696E76616C69645F7061C4
:1001300072616D006F6B006D616320726573657431
:100140000D0A006D61632073657420727864656CBC
:100150006179312025750D0A006D61632073657426
:100160002072783220257520256C750D0A006D618E
:100170006320736574206C696E6B63686B202575F2
:100180000D0A006D6163206A6F696E206F74616192
:100190000D0A006D61632067657420646E6374727C
:1001A0000D0A006D61632073657420646E63747260
:1001B00020256C750D0A006D6163206765742075DC
:1001C000706374720D0A006D61632073657420752D
:1001D0007063747220256C750D0A00726164696F1A
:1001E0002067657420666465760D0A006D61632082
:1001F00067657420726574780D0A006D6163207301
:10020000657420726574782025750D0A0073797302
:1002100020676574207665720D0A00726164696FEB
:10022000206765742070726C656E0D0A00726164DF
:10023000696F20676574206372630D0A00726164E0
:10024000696F2067657420736E720D0A00726164B5
:10025000696F206765742062770D0A0072616469B6
:100260006F20676574207764740D0A007261646999
:100270006F206765742063720D0A00726164696F94
:100280002067657420626974726174650D0A00727A
:100290006164696F2067657420727862770D0A0067
:1002A000726164696F206765742073660D0A00725D
:1002B0006164696F20676574207077720D0A00723F
:1002C0006164696F2067657420667265710D0A004C
:1002D000726164696F20676574206D6F640D0A0038
:1002E000726164696F207365742062772025750DD3
:1002F0000A00726164696F207365742077647420EA
:10030000256C750D0A00726164696F207365742035
:1003100063722025730D0A00726164696F20736532
:1003200074206372632025730D0A00726164696F23
:10033000207365742070726C656E2025750D0A003F
:10034000726164696F207365742066646576202528
:10035000750D0A00726164696F20736574206269AB
:1003600074726174652025750D0A00726164696F8D
:100370002073657420727862772025732E25730DA3
:100380000A00726164696F20736574207278627705
:100390002025730D0A00726164696F2073657420F3
:1003A00073662025730D0A00726164696F2073659E
:1003B00074207077722025690D0A00726164696F7C
:1003C00020736574206672657120256C750D0A00B6
:1003D000726164696F20736574206D6F642025738A
:1003E0000D0A00726164696F206377206F66660D85
:1003F0000A00726164696F206377206F6E0D0A00D6
:10040000726164696F2074782025730D0A0072612F
:1004100064696F20727820300D0A006D6163206777
:100420006574206368207374617475732025750D7D
:100430000A006D61632067657420636820647272CE
:10044000616E67652025750D0A006D616320676523
:100450007420636820646379636C652025750D0AD8
:10046000006D616320676574206368206672657142
:100470002025750D0A006D61632067657420737413
:10048000617475730D0A006D616320676574206780
:10049000776E620D0A006D616320676574206D726E
:1004A000676E0D0A006D616320676574206463796F
:1004B000636C6570730D0A006D616320676574205D
:1004C0006164720D0A006D61632067657420707746
:1004D000726964780D0A006D61632067657420623B
:1004E000616E640D0A006D6163206765742064723B
:1004F0000D0A006D61632067657420617070657519
:10050000690D0A006D616320676574206465766516
:1005100075690D0A006D61632067657420646576F6
:10052000616464720D0A006D6163207365742063F9
:1005300068207374617475732025752025730D0A06
:10054000006D61632073657420636820647272615A
:100550006E67652025752025752025750D0A006DAF
:1005600061632073657420636820646379636C65DC
:100570002025752025750D0A006D61632073657453
:10058000206368206672657120257520256C750DC5
:100590000A006D61632073657420616472202573A5
:1005A0000D0A006D616320736574206472202575E7
:1005B0000D0A006D61632073657420707772696441
:1005C000782025750D0A006D6163207365742061C4
:1005D00070706B65792025730D0A006D616320735F
:1005E000657420617070736B65792025730D0A0046
:1005F0006D616320736574206E776B736B65792012
:1006000025730D0A006D616320736574206170703D
:100610006575692025730D0A006D6163207365742B
:10062000206465766575692025730D0A006D616328
:100630002073657420646576616464722025730D8F
:100640000A006D616320726573756D650D0A006D3A
:1006500061632070617573650D0A006D61632073BD
:100660006176650D0A006D6163206A6F696E2061B5
:1006700062700D0A006D616320747820756E636E80
:10068000662025752025730D0A006D61632074783E
:1006900020636E662025752025730D0A006D616349
:1006A0002072657365742025730D0A0073797320B9
:1006B000676574207664640D0A007379732067653A
:1006C000742068776575690D0A0073797320666117
:1006D00063746F727952455345540D0A00737973F0
:1006E0002072657365740D0A0000000008000201A5
:1006F0000000030407000000000000000034012691
:10070000011B01140108010101F800ED00E300E004
:1007100000DC00D100C700C400B900B100A0009205
:10072000008700800079006B006800DD06CA06BA09
:1007300006AC069D068A06750666065B064F0642EF
:10074000062D0619060506F005DB05C705B305A34A
:1007500005920579055F054105270515050405F393
:1007600004E604D704C604B804A5049604870476F6
:100770000461044A0432041B040E040004F203E37F
:1007800003D003BB03A803960382036B0354034007
:10079000032B0318030603F202E002D002BF02AFEC
:1007A00002A0028F027B026C025C024D023D022D10
:1007B000021B020D02FB01EC01DB01C701B701A323
:1007C00001930183016E01590143013701000000CB
:1007D00000250028002B0000000000240027002A2C
:1007E00000040404040404040402020202020203DA
:1007F00003030303030102040810204080010204E4
:1008000008102001020408102000910C11241FBEC2
:10081000CFEFD8E0DEBFCDBF27E0A6E4B1E001C056
:100820001D92A531B207E1F711E0A0E0B1E0E4E4E8
:10083000F1E302C005900D92A634B107D9F714E098
:10084000C6E0D4E004C02197FE010E947318C530B1
:10085000D107C9F70E94F80C0C94A0180C94000062
:10086000CF92DF92EF92FF926B017C01E091160232
:10087000F091170282E08083C11481EED806E10472
:10088000F104A1F060E079E08DE390E0A70196012A
:100890000E94001821503109410951095695479588
:1008A00037952795211580E13807A8F0E0911602C9
:1008B000F0911702108260E874E88EE190E0A701E1
:1008C00096010E940018215031094109510956959D
:1008D000479537952795E0911202F09113023083E6
:1008E000E0911402F0911502208310921E02E09113
:1008F0001A02F0911B0286E08083E0911802F091C9
:100900001902808180618083E0911802F0911902C0
:10091000808188608083E0911802F09119028081C3
:1009200080688083E0911802F091190280818F7DA8
:100930008083FF90EF90DF90CF900895982F2091C3
:10094000050281E0213208F043C08091E10181116C
:10095000FCCF8091040232E03093E1019093E001FA
:100960009FEF9093DF011092DE012093DD01A4EE52
:10097000B1E0EDEBF1E090E0291331C01092BC0141
:100980009091BC01880F892B8093BC018091BB01A1
:10099000813049F51092BB018091BC018093BB006E
:1009A0008091BC0083FDF8CF85EC8093BC008091E2
:1009B000E1018230E1F38091DF018F3FB1F080915E
:1009C000DF018032A1F08091DF01803391F084E07B
:1009D0001092E301109205021092E20108953D91F8
:1009E00031939F5FC9CF85EEE0CF80E0F1CF82E009
:1009F000EFCF83E0EDCF90E0FC01EB50F84F249176
:100A00008F51984FFC018491882399F090E0880FD2
:100A1000991FFC01E952F84FA591B491FC01E353F1
:100A2000F84F859194918FB7F894EC91E22BEC9369
:100A30008FBF089508950895AF92BF92CF92DF922D
:100A4000EF92FF920F931F93CF93DF936C017B0183
:100A50008B01040F151FEB015E01AE18BF08C01714
:100A6000D10759F06991D601ED91FC910190F08187
:100A7000E02DC6010995892B79F7C501DF91CF914A
:100A80001F910F91FF90EF90DF90CF90BF90AF90AC
:100A900008950895FC01538D448D252F30E0842F57
:100AA00090E0821B930B541710F0CF960895019796
:100AB0000895FC01918D828D981761F0A28DAE0F83
:100AC000BF2FB11D5D968C91928D9F5F9F73928F0A
:100AD00090E008958FEF9FEF0895FC01918D828D36
:100AE000981731F0828DE80FF11D858D90E0089503
:100AF0008FEF9FEF0895FC01918D228D892F90E05B
:100B0000805C9F4F821B91098F739927089586E01F
:100B100092E00E947B0521E0892B09F420E0822FDE
:100B2000089580E090E0892B29F00E9487058111CB
:100B30000C9400000895FC01A48DA80FB92FB11DDD
:100B4000A35ABF4F2C91848D90E001968F73992703
:100B5000848FA689B7892C93A089B1898C918370E1
:100B600080648C93938D848D981306C00288F389DA
:100B7000E02D80818F7D80830895EF92FF920F9307
:100B80001F93CF93DF93EC0181E0888F9B8D8C8D39
:100B900098131AC0E889F989808185FF15C09FB72D
:100BA000F894EE89FF896083E889F98980818370F0
:100BB000806480839FBF81E090E0DF91CF911F919F
:100BC0000F91FF90EF900895F62E0B8D10E00F5FC0
:100BD0001F4F0F731127E02E8C8D8E110CC00FB696
:100BE00007FCFACFE889F989808185FFF5CFCE012E
:100BF0000E949B05F1CFEB8DEC0FFD2FF11DE35A09
:100C0000FF4FF0829FB7F8940B8FEA89FB898081B0
:100C10008062CFCFCF93DF93EC01888D8823B9F02A
:100C2000AA89BB89E889F9898C9185FD03C08081F7
:100C300086FD0DC00FB607FCF7CF8C9185FFF2CF74
:100C4000808185FFEDCFCE010E949B05E9CFDF912A
:100C5000CF91089590E0FC01E751F94F2491FC01F8
:100C6000EB50F84F3491FC01EF51F84FE491EE2333
:100C7000C9F0222339F0233001F1A8F4213019F111
:100C8000223029F1F0E0EE0FFF1FE353F84FA5915A
:100C9000B4918FB7F894EC91611126C030953E2342
:100CA0003C938FBF08952730A9F02830C9F0243035
:100CB00049F7809180008F7D03C0809180008F77FD
:100CC00080938000DFCF84B58F7784BDDBCF84B580
:100CD0008F7DFBCF8091B0008F778093B000D2CF13
:100CE0008091B0008F7DF9CF3E2BDACF85E00E9456
:100CF000FB0460E085E00C942A063FB7F8948091ED
:100D00008E0190918F01A0919001B091910126B533
:100D1000A89B05C02F3F19F00196A11DB11D3FBF33
:100D2000BA2FA92F982F8827BC01CD01620F711D02
:100D3000811D911D42E0660F771F881F991F4A95FC
:100D4000D1F708958F929F92AF92BF92CF92DF9288
:100D5000EF92FF926B017C010E947D064B015C01CA
:100D6000C114D104E104F104B9F00E947D066819B0
:100D700079098A099B09683E73408105910580F3D2
:100D800021E0C21AD108E108F10888EE880E83E05C
:100D9000981EA11CB11CE4CFFF90EF90DF90CF9084
:100DA000BF90AF909F908F9008952FB7F894609167
:100DB0008A0170918B0180918C0190918D012FBFE0
:100DC000089585ED8093BC008091BC0084FDFCCF2C
:100DD0001092E101089520916601260F3327331FF9
:100DE00021323105ECF42091E101FC0190E080E03A
:100DF000243069F082E00895A09166012191AC0150
:100E00004A5B5E4FA40FB52FB11D2C930196861738
:100E100098F380916601680F6093660180E0089501
:100E200081E00895E091990180919801E81730F4EC
:100E3000F0E0E656FE4F808190E008958FEF9FEF3F
:100E4000089590919901809198012FEF3FEF9817A5
:100E500048F4E92FF0E0E656FE4F208130E09F5F36
:100E600090939901C90108958091980190919901F9
:100E7000891B990B0895CF92DF92EF92FF920F9307
:100E80001F93CF93DF937C01CB018A012091E20174
:100E9000222389F0EB016B01C40ED51ECC15DD05B4
:100EA00069F06991D701ED91FC910190F081E02DFD
:100EB000C7010995F3CF642F0E94EB06C801DF91AB
:100EC000CF911F910F91FF90EF90DF90CF900895F9
:100ED000CF93DF931F92CDB7DEB769832091E201F4
:100EE0002223F9F020910502203258F021E030E071
:100EF000FC013383228390E080E00F90DF91CF915B
:100F000008958091E301E82FF0E0EC51FE4F9981C4
:100F100090838F5F8093E3018093050281E090E0EE
:100F2000ECCF61E0CE0101960E94EB06F7CFCF93A4
:100F3000C62F9091BA01906221E02093E201909334
:100F400004021092E30110920502682F81EC96E0F2
:100F50000E9468076C2F81EC96E00E94680781E090
:100F6000CF910C949E0490E080E00895AF92BF92E0
:100F7000CF92DF92EF92FF920F931F93CF93DF9365
:100F8000EA0109900020E9F72197C41BD50B6C17E3
:100F90007D07B8F07A016C01B12CA12C8B010C1BE0
:100FA0001D0B0A151B0568F0AE01B701C6018A0DBD
:100FB0009B1D0E948418892B81F08FEFA81AB80A14
:100FC000F0CF80E0DF91CF911F910F91FF90EF90D4
:100FD000DF90CF90BF90AF90089581E0F3CF2F9234
:100FE0003F924F925F926F927F928F929F92AF92B9
:100FF000BF92CF92DF92EF92FF920F931F93CF9306
:10100000DF936C011B015A014901270138018091CE
:10101000B002882341F08091A302811104C086E0D0
:1010200092E00E940A061091A302E60169916623EC
:1010300039F01111FBCF86E092E00E94BD05F6CF9A
:101040006091AC027091AD028091AE029091AF02BE
:101050000E94A206E1EBF2E080E9DF011D928A9591
:10106000E9F710924203109241030E94D5066B01EA
:101070007C01D0E0C0E00E94D5066C197D098E0984
:101080009F09641575058605970508F051C0809184
:10109000A302811167C086E092E00E947B05892B44
:1010A000B1F0CF38D10598F48091A3028823D9F10B
:1010B0008FEFFE01ED55FD4F8687809141039091A2
:1010C000420301969093420380934103219600913D
:1010D000410310914203A101B80181EB92E00E940B
:1010E000B607811139C0A501B80181EB92E00E94D9
:1010F000B607811133C08114910441F0A401B801F5
:1011000081EB92E00E94B60781112AC00E94D506A9
:101110006C157D058E059F0508F0ADCF0E94D506A4
:101120006B017C01A8CF86E092E00E945905C1CFF7
:1011300080E0DF91CF911F910F91FF90EF90DF90B2
:10114000CF90BF90AF909F908F907F906F905F9067
:101150004F903F902F90089581E0EBCF82E0E9CF50
:1011600083E0E7CFCF38D10508F0B1CFA1CFEF9220
:10117000FF920F931F937801890130E020E00E94D5
:10118000EF071F910F91FF90EF9008954F925F929C
:101190006F927F928F929F92AF92BF92CF92DF9287
:1011A000EF92FF920F931F93CF93DF934C018B012C
:1011B00029013A01E1EBF2E080E9DF011D928A9515
:1011C000E9F710924203109241030E94D5066B0189
:1011D0007C01D0E0C0E00E94D5066C197D098E0923
:1011E0009F09641575058605970508F049C080912B
:1011F000A30281115BC086E092E00E947B05892BEF
:10120000B1F0CF38D10598F48091A302882399F1E9
:101210008FEFFE01ED55FD4F868780914103909140
:101220004203019690934203809341032196A0903C
:101230004103B0904203A401B50181EB92E00E940A
:10124000B60781112FC00115110541F0A801B501A4
:1012500081EB92E00E94B607811126C00E94D5065C
:101260006C157D058E059F0508F0B5CF0E94D5064B
:101270006B017C01B0CF86E092E00E945905C9CF96
:1012800080E0DF91CF911F910F91FF90EF90DF9061
:10129000CF90BF90AF909F908F907F906F905F9016
:1012A0004F90089581E0EDCF82E0EBCFCF38D105AC
:1012B00008F0BDCFADCF9091BA01906221E02093AC
:1012C000E201909304021092E30110920502682F4C
:1012D00081EC96E00E94680781E00E949E04809164
:1012E000E1018111FCCF8091BA0191E09093E1017D
:1012F0009093E0012FEF2093DF011092DE01109216
:10130000DD019093BC019091BC018062880F892B14
:101310008093BC018091BB01813041F51092BB01EB
:101320008091BC018093BB008091BC0083FDF8CF0D
:1013300085EC8093BC008091E1018130E1F38091E4
:10134000DE0191E0811102C09091DE01ADEBB1E0D0
:10135000EAE9F1E080E089130BC0109299018093D3
:10136000980181EC96E00E942107089585EEE1CF77
:101370002D9121938F5FEFCFCF93DF93D82FC62F7F
:1013800089E00E945B0961E070E001C0660FDA95B8
:10139000EAF7C13031F4682B89E0DF91CF910C94EA
:1013A000970760956823F8CF60E084E00E94BC094D
:1013B00060E085E00E94BC0964E670E080E090E0B7
:1013C0000C94A206CF93DF93D82FC62F80E00E9403
:1013D0005B0961E070E001C0660FDA95EAF7C111C0
:1013E00006C0682B80E0DF91CF910C949707609541
:1013F0006823F8CFCF931092BA01109299011092FE
:1014000098011092E301109205021092E101C1E0EF
:10141000C093E0011092BB0161E082E10E942A06C4
:1014200061E083E10E942A06E9EBF0E080818E7F93
:10143000808380818D7F808388E48093B80085E4F9
:101440008093BC008AE195E090939501809394018C
:101450008BE195E090939301809392018091BA0182
:101460008062C093E201809304021092E301109223
:10147000050260E081EC96E00E9468076FEF81EC66
:1014800096E00E94680760E081EC96E00E946807A1
:1014900060E081EC96E00E94680760E081EC96E0F5
:1014A0000E94680760E081EC96E00E94680760E0B7
:1014B00081EC96E00E94680760E081EC96E00E9473
:1014C000680760E081EC96E00E94680760E081ECCC
:1014D00096E00E94680760E081EC96E00E94680751
:1014E00081E00E949E046AE070E080E090E00E944B
:1014F000A20661E080E00E94E20961E081E00E94D2
:10150000E20961E082E00E94E20961E083E00E947A
:10151000E20961E084E00E94E20961E085E00E9466
:10152000E20960E086E00E94E20961E087E00E9453
:10153000E20964E670E080E090E00E94A20660E0CC
:1015400080E00E94BC0960E081E00E94BC0960E08C
:1015500082E00E94BC0961E083E00E94BC0961E076
:1015600084E00E94BC0960E085E00E94BC0961E063
:1015700087E00E94BC0964E670E080E090E0CF91D3
:101580000C94A20662E471E081EB92E00E941B15CC
:10159000009711F00C94EB1460E070E0CB0108951B
:1015A0001F920F920FB60F9211242F933F934F93D8
:1015B0005F936F937F938F939F93AF93BF93EF93BB
:1015C000FF9386E092E00E949B05FF91EF91BF910F
:1015D000AF919F918F917F916F915F914F913F91CB
:1015E0002F910F900FBE0F901F9018951F920F9282
:1015F0000FB60F9211242F938F939F93EF93FF9326
:10160000E0911602F09117028081E0911C02F091A6
:101610001D0282FD1BC0908180911F028F5F8F731E
:1016200020912002821741F0E0911F02F0E0EA5F72
:10163000FD4F958F80931F02FF91EF919F918F91A6
:101640002F910F900FBE0F901F9018958081F4CFAF
:101650001F920F920FB60F9211242F933F938F93E7
:101660009F93AF93BF9380918A0190918B01A0913A
:101670008C01B0918D013091890123E0230F2D372A
:1016800058F50196A11DB11D2093890180938A010F
:1016900090938B01A0938C01B0938D0180918E016A
:1016A00090918F01A0919001B09191010196A11D9F
:1016B000B11D80938E0190938F01A0939001B09300
:1016C0009101BF91AF919F918F913F912F910F9079
:1016D0000FBE0F901F90189526E8230F0296A11DAC
:1016E000B11DD2CF1F920F920FB60F9211242F93DC
:1016F0003F934F935F936F937F938F939F93AF939A
:10170000BF93EF93FF938091B900887F803609F4EF
:101710004AC0F0F5883209F4A7C018F5803109F401
:101720009BC0B8F4882309F4F9C0883009F494C048
:10173000FF91EF91BF91AF919F918F917F916F91A9
:101740005F914F913F912F910F900FBE0F901F907F
:101750001895883109F488C0803251F78093DF01F1
:1017600014C0803409F49DC040F48033B9F3883349
:10177000F9F68093DF0185ECB0C0803509F485C0AF
:10178000883509F496C0883499F60E94E106D0CFD6
:10179000883909F48CC038F5883729F050F4883638
:1017A00011F0803729F683E08093E10110928801DF
:1017B00057C0883809F47BC0803919F0803809F0A7
:1017C000B7CF80918801803208F071C0E091880124
:1017D00081E08E0F809388018091BB00F0E0E85992
:1017E000FE4F80833DC0803B39F0E0F4803A09F43D
:1017F00079C0883A09F09CCF84E08093E10110928F
:10180000670110926601E0919401F09195010995AC
:101810008091660181110FC081E080936601109272
:10182000460109C0803C09F4A6CF883C09F4A3CF47
:10183000883B09F07DCFE091670181E08E0F8093B6
:101840006701F0E0EA5BFE4F80818093BB009091DE
:1018500067018091660129C08091BC018093BB0023
:1018600085EC8093BC0064CF9091DE018091DD0116
:10187000981758F5E091DE0181E08E0F8093DE012C
:10188000F0E0E354FE4F8081E9CFE091DE0181E09A
:101890008E0F8093DE018091BB00F0E0E354FE4F99
:1018A00080839091DE018091DD019817C8F285E870
:1018B000D8CFE091DE0181E08E0F8093DE01809130
:1018C000BB00F0E0E354FE4F80838091E001811182
:1018D0005CCF81E08093BB0184EA8093BC001092CE
:1018E000E10126CF85EC8093BC001092E10180914C
:1018F0008801803230F4E0918801F0E0E859FE4F31
:1019000010826091880170E0E0919201F091930162
:1019100088E691E00995109288010ACF1092DF01C4
:1019200034CFE6E0F2E01382128288EE93E0A0E08A
:10193000B0E084839583A683B78320E131E03183CF
:10194000208325EC30E03587248724EC30E037878E
:10195000268720EC30E0318B208B21EC30E0338B7C
:10196000228B22EC30E0358B248B26EC30E0378B59
:10197000268B118E128E138E148EE3EAF2E040E075
:1019800052EC61E070E0418352836383748348E8E2
:1019900053E160E070E0458356836783708744E6D7
:1019A00050E060E070E0418752876387748721E0F0
:1019B0002587E1ECF6E01382128284839583A68367
:1019C000B78382E291E091838083EDECF6E01682AA
:1019D000178210861186128613861486158616863F
:1019E0001786108A118A128A138A148A158A089512
:1019F000CF93DF93CDB7DEB7C857D1090FB6F894B0
:101A0000DEBF0FBECDBF789484B5826084BD84B53F
:101A1000816084BD85B5826085BD85B5816085BDE9
:101A200080916E00816080936E00109281008091A1
:101A30008100826080938100809181008160809329
:101A40008100809180008160809380008091B1004E
:101A500084608093B1008091B00081608093B00079
:101A600080917A00846080937A0080917A0082600D
:101A700080937A0080917A00816080937A008091CF
:101A80007A00806880937A001092C10010920F074C
:101A90001092100710921107109212071092CF06A1
:101AA0001092D0061092D1061092D2060E94D5064E
:101AB0006B017C014B015C0128EB820E2BE0921E36
:101AC000A11CB11C0E94D5066C157D058E059F05D5
:101AD00028F086169706A806B906A0F768EE73E008
:101AE00080E090E00E94A20660E072EC81E090E06D
:101AF0000E9430040E94D5066093CF067093D006F2
:101B00008093D1069093D20640E150E060E371E00B
:101B100086E092E00E941C050E94D5066B017C01C4
:101B20004B015C013AE0830E911CA11CB11C0E9488
:101B3000D5066C157D058E059F0528F0861697063F
:101B4000A806B906A0F781E08093E3068DE00E9425
:101B5000FB0460E08DE00E942A0680E091EEA0E0A8
:101B6000B0E08093A4029093A502A093A602B09344
:101B7000A7021092A3020E9476060E94D40960E098
:101B800080E00E94BC091092970164E670E080E05A
:101B900090E00E94A2068091A302811124C086E0F9
:101BA00092E00E940A06E0911802F09119028081E9
:101BB0008F7E8083E0911802F09119028081877FE7
:101BC0008083E0911802F091190280818F778083E1
:101BD000E0911802F091190280818F7D80838091BD
:101BE000200280931F0268EC70E080E090E00E9489
:101BF000A2061092A30280919601813011F00E94FA
:101C0000FA0965E070E080E090E00E94A20661E0E1
:101C100080E00E94BC0981E08093970164E670E057
:101C200080E090E00E94A20685E00E94FB0461E053
:101C300085E00E942A0660E084E00E94BC0961E021
:101C400085E00E94BC0964E670E080E090E00E94BC
:101C5000A2068091A30281110AC06091A402709132
:101C6000A5028091A6029091A7020E9430046CE226
:101C700071E080E090E00E94A206A3E4B3E08AEF66
:101C8000FD0111928A95E9F79E012B593F4FE69687
:101C90003FAF2EAFE6978FE0F901282F11922A95DA
:101CA000E9F75E0133E3A30EB11CF501282F119271
:101CB0002A95E9F7FE0131966F0111928A95E9F7AD
:101CC000E3EBF7E0859194919F938F93BF93AF934C
:101CD0000E945C15E7E0F7E0859194919F938F93C4
:101CE000E696FFADE697FF93E5962FADE5972F9328
:101CF0000E945C15E5E2F7E0859194919F938F93A4
:101D0000BF92AF920E945C1577E2872E77E0972E04
:101D1000F401859194919F938F93DF92CF920E94CB
:101D20005C1518EEE12E13E0F12E00E010E09601B4
:101D3000A501BE016B597F4F83E493E00E94EF073A
:101D40000FB6F894DEBF0FBECDBF813009F01AC5C3
:101D50008093C00660E08DE00E942A06712CA3E407
:101D6000B3E08AEFFD0111928A95E9F78FE0F50162
:101D7000282F11922A95E9F7F60111928A95E9F731
:101D8000EDE3F7E0859194919F938F93BF93AF9389
:101D90000E945C15E9E1F7E0859194919F938F9300
:101DA000BF92AF920E945C156FEF262E66E0362E32
:101DB000F101859194919F938F93DF92CF920E942E
:101DC0005C1504EF11E020E030E0A601B50183E4EA
:101DD00093E00E94B7080FB6F894DEBF0FBECDBFE8
:101DE000813009F4D9C461E08DE00E942A0677248D
:101DF0007394A3E4B3E08AEFFD0111928A95E9F7A9
:101E00005FE0F52EF5012F2D11922A95E9F7F601E5
:101E10002F2D11922A95E9F78091C00681508230CA
:101E200008F0BFC4E5E8F7E0859194911F92FF9216
:101E30009F938F93BF93AF930E945C15EDEFF6E0F5
:101E4000859194919F938F93BF92AF920E945C155E
:101E5000F101859194919F938F93DF92CF920E948D
:101E60005C1504EF11E020E030E0A601B50183E449
:101E700093E00E94B7080FB6F894DEBF0FBECDBF47
:101E8000813009F08EC4F092E70560E08DE00E9499
:101E90002A06A3E4B3E08AEFFD0111928A95E9F7DF
:101EA0008FE0F60111928A95E9F7EFE9F7E0859165
:101EB00094919F938F93BF93AF930E945C15F10110
:101EC000859194919F938F93DF92CF920E945C159E
:101ED00004EF11E020E030E0A60162E471E083E469
:101EE00093E00E94B7080FB6F894DEBF0FBECDBFD7
:101EF000813009F05DC40E94C20A6093E70560E08A
:101F00008DE00E942A068091C006813009F057C4F6
:101F1000A3E4B3E08AEFFD0111928A95E9F782E329
:101F2000F501282F11922A95E9F7F60111928A9569
:101F3000E9F7E3E8F7E08591949123E32F932EEB03
:101F40002F9327E22F9320EA2F939F938F93BF9392
:101F5000AF930E945C15EDEFF6E0859194919F930D
:101F60008F93BF92AF920E945C15F101859194917D
:101F70009F938F93DF92CF920E945C1504EF11E044
:101F800020E030E0A601B50183E493E00E94B708A9
:101F90000FB6F894DEBF0FBECDBF813009F00FC47D
:101FA00080EA97E2AEEBB3E3809324059093250596
:101FB000A0932605B093270560E08DE00E942A06D5
:101FC000A3E4B3E08AEFFD0111928A95E9F78FE06F
:101FD000F60111928A95E9F7EDE9F7E08591949180
:101FE0009F938F93BF93AF930E945C15F1018591EE
:101FF00094919F938F93DF92CF920E945C1504EF90
:1020000011E020E030E0A60162E471E083E493E0B7
:102010000E94B7080FB6F894DEBF0FBECDBF813067
:1020200009F0D4C30E94C20A609324057093250569
:10203000809326059093270560E08DE00E942A0694
:10204000A3E4B3E08AEFFD0111928A95E9F78FE0EE
:10205000F501282F11922A95E9F7F60111928A9538
:10206000E9F7E7E8F7E08591949127E031E03F93C5
:102070002F939F938F93BF93AF930E945C1549E278
:10208000E42E47E0F42EF701859194919F938F936E
:10209000BF92AF920E945C15F401859194919F9339
:1020A0008F93DF92CF920E945C1504EF11E020E045
:1020B00030E0A601B50183E493E00E94B7080FB6B3
:1020C000F894DEBF0FBECDBF813009F486C361E056
:1020D0008DE00E942A0677247394A3E4B3E08AEF8C
:1020E000FD0111928A95E9F78FE0F60111928A9528
:1020F000E9F7E1EAF7E0859194919F938F93BF937D
:10210000AF930E945C15F101859194919F938F93F9
:10211000DF92CF920E945C1504EF11E020E030E0E6
:10212000A60162E471E083E493E00E94B7080FB671
:10213000F894DEBF0FBECDBF813009F053C3E8EE87
:10214000F5E085E0DF011D928A95E9F745E050E072
:1021500061EB72E0CF010E94911860E08DE00E9477
:102160002A06A3E4B3E08AEFFD0111928A95E9F70C
:102170008FE0F501282F11922A95E9F7F6011192C7
:102180008A95E9F7E5E9F7E08591949123E031E05C
:102190003F932F939F938F93BF93AF930E945C15B0
:1021A000EDEFF6E0859194919F938F93BF92AF925C
:1021B0000E945C15F101859194919F938F93DF921A
:1021C000CF920E945C1504EF11E020E030E0A60100
:1021D000B50183E493E00E94B7080FB6F894DEBF20
:1021E0000FBECDBF813009F004C3E5EFF5E084E018
:1021F000DF011D928A95E9F744E050E063E071E069
:10220000CF010E94911860E08DE00E942A06A3E4AD
:10221000B3E08AEFFD0111928A95E9F78FE0F601AC
:1022200011928A95E9F7E7EAF7E0859194919F93F7
:102230008F93BF93AF930E945C15F10185919491A8
:102240009F938F93DF92CF920E945C1504E610E07B
:1022500020E030E0A60162E471E083E493E00E94B4
:10226000B7080FB6F894DEBF0FBECDBF813049F47A
:1022700062E471E081EB92E00E941B15009709F087
:10228000BFC261E08DE00E942A0677247394A3E424
:10229000B3E08AEFFD0111928A95E9F78FE0F5012D
:1022A000282F11922A95E9F7F60111928A95E9F7FC
:1022B000E9E9F7E0859194911F922DE72F939F9381
:1022C0008F93BF93AF930E945C15EDEFF6E085917D
:1022D00094919F938F93BF92AF920E945C15F101EE
:1022E000859194919F938F93DF92CF920E945C157A
:1022F00004EF11E020E030E0A601B50183E493E0B3
:102300000E94B7080FB6F894DEBF0FBECDBF61E0E4
:10231000813039F48DE790E09093FE058093FD05C0
:1023200060E08DE00E942A06A3E4B3E08AEFFD019D
:1023300011928A95E9F78FE0F60111928A95E9F7F3
:10234000EBEAF7E0859194919F938F93BF93AF93BE
:102350000E945C15F101859194919F938F93DF9278
:10236000CF920E945C1504EF11E020E030E0A6015E
:1023700062E471E083E493E00E94B7080FB6F8943A
:10238000DEBF0FBECDBF813009F04CC20E94C20A31
:102390007093FE056093FD0560E08DE00E942A06C3
:1023A000A3E4B3E08AEFFD0111928A95E9F78FE08B
:1023B000F501282F11922A95E9F7F60111928A95D5
:1023C000E9F7E3E9F7E08591949120E031E03F936C
:1023D0002F939F938F93BF93AF930E945C15F70148
:1023E000859194919F938F93BF92AF920E945C15B9
:1023F000F401859194919F938F93DF92CF920E94E5
:102400005C1504EF11E020E030E0A601B50183E4A3
:1024100093E00E94B7080FB6F894DEBF0FBECDBFA1
:10242000813009F006C21092E40560E08DE00E9460
:102430002A06A3E4B3E08AEFFD0111928A95E9F739
:102440008FE0E696EEADFFADE697282F11922A9524
:10245000E9F7F50111928A95E9F784E1F601119205
:102460008A95E9F7EFEAF7E0859194919F938F932E
:10247000BF93AF930E945C15EFE0F7E085919491D4
:102480009F938F93E696FFADE697FF93E5962FAD6A
:10249000E5972F930E945C15E1E1F7E08591949117
:1024A0009F938F93BF92AF920E945C15F10185912B
:1024B00094919F938F93DF92CF920E945C1504EFCB
:1024C00011E020E030E0A501BE016B597F4F83E4AD
:1024D00093E00E94B7080FB6F894DEBF0FBECDBFE1
:1024E000813009F0ADC18093E40560E08DE00E9489
:1024F0002A0660E07110ADC18DE00E942A062AEF25
:10250000E22EE3E4F3E02E2D11922A95E9F73FE065
:10251000F32ED501EF2D1D92EA95E9F7D601EF2DA7
:102520001D92EA95E9F7E7E9F7E0859194911F920A
:102530001F9227E22F9320E12F939F938F9323E401
:1025400033E03F932F930E945C15EDEFF6E0859109
:1025500094919F938F93BF92AF920E945C15F1016B
:10256000859194919F938F93DF92CF920E945C15F7
:1025700004EF11E020E030E0A601B50183E493E030
:102580000E94B7080FB6F894DEBF0FBECDBF8130F2
:1025900009F01CC280E197E2A0E0B0E08093F90569
:1025A0009093FA05A093FB05B093FC05A3E4B3E078
:1025B000EE2D1D92EA95E9F7E696AEADBFADE69732
:1025C000EF2D1D92EA95E9F7D501EF2D1D92EA95C1
:1025D000E9F7E9E7F7E0859194919F938F9323E4DE
:1025E00033E03F932F930E945C15EDEFF6E0859169
:1025F00094919F938F93E6969FADE6979F93E59670
:10260000AFADE597AF930E945C15F1018591949170
:102610009F938F93BF92AF920E945C1504E610E0E7
:1026200020E030E0A501BE016B597F4F83E493E0C9
:102630000E94B7080FB6F894DEBF0FBECDBF813041
:1026400009F0C4C1E696AEADBFADE697EF2D1D9281
:10265000EA95E9F7D501EF2D1D92EA95E9F7EBE050
:10266000F7E0859194919F938F93E696FFADE6975F
:10267000FF93E5962FADE5972F930E945C15E7E158
:10268000F7E0859194919F938F93BF92AF920E94B0
:102690005C15E5E1F7E0859194919F938F93DF922C
:1026A000CF920E945C1520E137E240E050E0B60195
:1026B000CE018B599F4F0E94C6080FB6F894DEBF1B
:1026C0000FBECDBF813009F081C128EE33E040E07C
:1026D00050E070E060E0C5010E94C60880914103AF
:1026E00090914203FC01ED55FD4F15860297FC01C8
:1026F000ED55FD4F1686909342038093410360E0B1
:102700008DE00E942A06E3E4F3E01192EA94E9F7EF
:10271000D6011D92FA94E9F7EDEAF7E085919491DC
:102720009F938F93E3E4F3E0FF93EF930E945C1594
:10273000F101859194919F938F93DF92CF920E94A4
:102740005C1504EF11E020E030E0A60162E471E0E6
:1027500083E493E00E94B7080FB6F894DEBF0FBE83
:10276000CDBF813009F01BC161E471E081EB92E0E3
:102770000E941B154C01892B09F06EC0412C512C75
:10278000320108C1823009F4E3CA61E08DE00E94A1
:102790002A0677247394E3CA60E08DE00E942A063B
:1027A00028CB61E08DE00E942A067724739471CBD8
:1027B00061E08DE00E942A0677247394A4CB60E048
:1027C0008DE00E942A0677247394FACB61E08DE0B5
:1027D0000E942A067724739433CC60E08DE00E9437
:1027E0002A067BCC61E08DE00E942A067724739450
:1027F000B8CC61E08DE00E942A067724739407CD5F
:10280000E5EFF5E024E0DF011D922A95E9F744E0C9
:1028100050E0BC01CF010E94911860E08DE00E9461
:102820002A0635CD61E08DE00E942A067724739454
:10283000B7CD61E08DE00E942A0677247394F9CD2C
:10284000823019F41092E40550CE61E08DE00E94D0
:102850002A0661E051CE47017401BFEFEB1AFB0A73
:10286000F401F081E796FFAFE7978F2F90E00E9489
:1028700012158C01892B79F7E7962FADE7972D324A
:1028800009F065C0740132E0E30EF11CD401119629
:10289000BC91E796BFAFE79788248394912CE99683
:1028A000FFAEEEAEE997412C512C3201E796EFAD29
:1028B000E797EE2EF12CE7FD61C0C701C097E0530A
:1028C0000A9788F0C7010E947C18892B09F456C02A
:1028D000C7010E947918892B09F44BC087E3E7965A
:1028E000EFADE797E81B8E2F90E08A3091050CF052
:1028F00045C017FD40C0FAE94F16F9E95F066F06BB
:10290000F9E17F06C0F529E942165206620629E17F
:10291000720611F406977CF5AAE0B0E0A3019201DB
:102920000E9422182B013C014E0E511C611C711C8F
:1029300001E010E0E996AEADBFADE997ED91E99603
:10294000BFAFAEAFE997E796EFAFE797AFCFE796A8
:10295000EFADE797EB3251F47401F2E0EF0EF11CAA
:10296000D4011196BC91E796BFAFE797912C812CCB
:1029700096CF87E5B4CF0FEF1FEFDCCF17FD1CC05C
:10298000892841F07094609450944094411C511CEB
:10299000611C711CFFE1F415A4F04092FF0520E0DA
:1029A00030E0232B09F4ABCD0E948705882309F47E
:1029B000A6CD0E940000A3CD44244A94542C320199
:1029C000E9CF80E484198093FF05E9CF61E08DE0D1
:1029D0000E942A06E4CF1F93FC0199278827BC0197
:1029E000E89411911032E9F3193010F01E30C8F359
:1029F0001B3251F01D3249F4689406C00E944715FD
:102A0000610F711D811D911D119110531A30B0F38A
:102A10003EF490958095709561957F4F8F4F9F4FB5
:102A20001F91089591110C945917803219F0895013
:102A30008550C8F7089543E157E00E942015089596
:102A4000FA01A191B081009719F41097E1F0CD013E
:102A5000DC01CD010D90002011F4C00113C0FB0179
:102A60002191222319F02015D9F7F3CFFB012191F1
:102A7000201519F41E92119606C02223C1F70D905D
:102A80000020A1F7D001FA01A193B0830895592F36
:102A9000482F372F262F660F771F881F991F660F25
:102AA000771F881F991F620F731F841F951F660F62
:102AB000771F881F991F0895AEE0B0E0E2E6F5E1C8
:102AC0000C943B180D891E898EE08C831A83098330
:102AD0008FEF9FE79E838D83AE01475E5F4F6F89C7
:102AE000788DCE0101960E947F152F813885020FC7
:102AF000131FF80110822E96E4E00C945718ABE0F7
:102B0000B0E0E5E8F5E10C942D187C013B018A0169
:102B1000FC0117821682838181FFC8C1CE01019614
:102B20005C01F7019381F30193FD859193FF8191FE
:102B30003F01882309F453C1853239F493FD85910F
:102B400093FF81913F01853229F4B70190E00E9403
:102B50007217E7CF912C212C312CFFE1F31538F0BF
:102B60008B3211F190F4803209F1833229F137FC74
:102B70003CC020ED280F2A3050F536FE20C08AE0F8
:102B8000989E200D1124922E06C08D3291F0803334
:102B900071F7689430F8F30193FD859193FF81916B
:102BA0003F018111DACF21C0689431F8689432F87E
:102BB000F2CF689433F8EFCF689434F8ECCFEAE0C2
:102BC0002E9E200D1124222E689435F8E4CF8E32EB
:102BD00029F436FC04C1689436F8DDCF8C3619F43C
:102BE000689437F8D8CF8836B1F2982F9F7D9554E6
:102BF0009330E0F08336A1F18337C1F1833509F0DA
:102C000063C02801F2E04F0E511CF801C080D18052
:102C1000692D70E036FC02C06FEF7FEFC6010E94A5
:102C20005C174C01689437F882010AC00C5F1F4F93
:102C3000FFE3F98388248394912C6501E89437F8A5
:102C400033FE2DC0522C8114910471F5552009F4E6
:102C500068CFB70180E290E00E9472175A94F6CFD5
:102C6000F801808189830E5F1F4FE4CF2801F2E0D5
:102C70004F0E511CF801C080D180692D70E036FCE8
:102C800002C06FEF7FEFC6010E9467174C018201FF
:102C9000D5CFB70180E290E00E9472172A942814E1
:102CA000190409F0B0F7CECFF60137FC859137FE55
:102CB00081916F01B70190E00E94721751105A94F0
:102CC000F1E08F1A9108BFCF843619F0893609F0E8
:102CD00077C0F80137FE6BC060817181828193817A
:102CE0000C5F1F4FF32DFF763F2E97FF09C0909585
:102CF0008095709561957F4F8F4F9F4F689437F8FF
:102D00002AE030E0A5010E94A217C82ECA188C2C18
:102D1000432C36FE0CC0E89440F8C91440F434FE4D
:102D200005C032FC03C0F32DFE7E4F2E892C44FEDD
:102D300095C0FE01EC0DF11D8081803309F087C044
:102D4000242D297E422E842D8870582E43FC95C058
:102D500040FE8FC09C2C821418F42C0C922C9818D6
:102D600044FE91C0B70180E390E00E94721742FEDA
:102D700009C088E790E041FE02C088E590E0B70115
:102D80000E947217C91408F48AC0CA94D12C9FEF0C
:102D9000C91AD90ACA0CDB1CF60182916F01B7016E
:102DA00090E00E947217AC14BD04B1F74FCF608160
:102DB0007181072E000C880B990B0E5F1F4F92CF6D
:102DC000D32CE894D4F82AE030E0853739F1232D6C
:102DD000297FD22E8F3601F148F48835A9F0F7010A
:102DE000868197812B96E2E10C944918803749F04F
:102DF0008837A9F7D4FE02C06894D2F820E130E009
:102E00000DC06894D4F8F6CF34FE03C0822F8660DC
:102E1000D82E20E132E002C028E030E0F801D7FEF1
:102E20000FC060817181828193810C5F1F4FA5016A
:102E30000E94A217C82ECA183D2CE89437F867CF15
:102E40006081718190E080E00E5F1F4FF0CF42FC07
:102E500002C0839478CF8394839475CF842D867831
:102E600009F471CFF6CFB70180E290E00E947217AB
:102E700083948214C0F3512C73CF522C58188214AF
:102E800008F46ECFF8CF842D867809F47BCF8BE2DF
:102E900041FE80E247FC8DE2B70190E071CFB701BF
:102EA00080E390E00E9472179A946CCF8FEF9FEFAF
:102EB00099CF992788270895FC01059061507040AB
:102EC0000110D8F7809590958E0F9F1F0895FC01F3
:102ED0006150704001900110D8F7809590958E0F49
:102EE0009F1F08950F931F93CF93DF93182F092FE0
:102EF000EB018B8181FD09C01FEF0FEF812F902F18
:102F0000DF91CF911F910F91089582FF14C02E8100
:102F10003F818C819D81281739073CF4E881F98134
:102F2000CF0101969983888310838E819F810196BA
:102F30009F838E83E3CFE885F985812F0995892BBF
:102F4000A1F3DACFFA01AA27283051F1203181F11B
:102F5000E8946F936E7F6E5F7F4F8F4F9F4FAF4FA1
:102F6000B1E03ED0B4E03CD0670F781F891F9A1FB4
:102F7000A11D680F791F8A1F911DA11D6A0F711D68
:102F8000811D911DA11D20D009F468943F912AE074
:102F9000269F11243019305D3193DEF6CF0108955C
:102FA000462F4770405D4193B3E00FD0C9F7F6CF8D
:102FB000462F4F70405D4A3318F0495D31FD405255
:102FC000419302D0A9F7EACFB4E0A69597958795EB
:102FD00077956795BA95C9F70097610571050895CA
:102FE0009B01AC010A2E0694579547953795279576
:102FF000BA95C9F7620F731F841F951FA01D08950E
:10300000A1E21A2EAA1BBB1BFD010DC0AA1FBB1FEC
:10301000EE1FFF1FA217B307E407F50720F0A21B5E
:10302000B30BE40BF50B661F771F881F991F1A94CB
:1030300069F760957095809590959B01AC01BD01F5
:10304000CF0108950E946418A59F900DB49F900D24
:10305000A49F800D911D112408952F923F924F92AD
:103060005F926F927F928F929F92AF92BF92CF9218
:10307000DF92EF92FF920F931F93CF93DF93CDB721
:10308000DEB7CA1BDB0B0FB6F894DEBF0FBECDBF99
:1030900009942A88398848885F846E847D848C846A
:1030A0009B84AA84B984C884DF80EE80FD800C8173
:1030B0001B81AA81B981CE0FD11D0FB6F894DEBF56
:1030C0000FBECDBFED010895A29FB001B39FC00117
:1030D000A39F700D811D1124911DB29F700D811D44
:1030E0001124911D0895EE0FFF1F0590F491E02D1E
:1030F000099485FD0C945917806291110C9459170D
:1031000081568A51D8F70895FB01DC0104C08D91E6
:103110000190801921F441505040C8F7881B990B49
:103120000895FB01DC014150504048F001900D92A0
:103130000020C9F701C01D9241505040E0F70895AA
:04314000F894FFCF31
:103144006F6E00342F3500736631320000000000CA
:10315400BD051C054A050A067B0559056D050000D9
:10316400000068073B07B307490534072107120726
:10317400564D4450565F317C315F564D4450560A8B
:0631840000200D0A00000E
:00000001FF
